{
  "_format": "hh-sol-artifact-1",
  "contractName": "OrigamiNFT",
  "sourceName": "contracts/OrigamiNFT.sol",
  "abi": [
    {
      "inputs": [],
      "stateMutability": "nonpayable",
      "type": "constructor"
    },
    {
      "anonymous": false,
      "inputs": [
        {
          "indexed": true,
          "internalType": "address",
          "name": "owner",
          "type": "address"
        },
        {
          "indexed": true,
          "internalType": "address",
          "name": "approved",
          "type": "address"
        },
        {
          "indexed": true,
          "internalType": "uint256",
          "name": "tokenId",
          "type": "uint256"
        }
      ],
      "name": "Approval",
      "type": "event"
    },
    {
      "anonymous": false,
      "inputs": [
        {
          "indexed": true,
          "internalType": "address",
          "name": "owner",
          "type": "address"
        },
        {
          "indexed": true,
          "internalType": "address",
          "name": "operator",
          "type": "address"
        },
        {
          "indexed": false,
          "internalType": "bool",
          "name": "approved",
          "type": "bool"
        }
      ],
      "name": "ApprovalForAll",
      "type": "event"
    },
    {
      "anonymous": false,
      "inputs": [
        {
          "indexed": false,
          "internalType": "address",
          "name": "sender",
          "type": "address"
        },
        {
          "indexed": false,
          "internalType": "uint256",
          "name": "tokenId",
          "type": "uint256"
        }
      ],
      "name": "NewOrigamiNFTMinted",
      "type": "event"
    },
    {
      "anonymous": false,
      "inputs": [
        {
          "indexed": true,
          "internalType": "address",
          "name": "from",
          "type": "address"
        },
        {
          "indexed": true,
          "internalType": "address",
          "name": "to",
          "type": "address"
        },
        {
          "indexed": true,
          "internalType": "uint256",
          "name": "tokenId",
          "type": "uint256"
        }
      ],
      "name": "Transfer",
      "type": "event"
    },
    {
      "inputs": [
        {
          "internalType": "address",
          "name": "to",
          "type": "address"
        },
        {
          "internalType": "uint256",
          "name": "tokenId",
          "type": "uint256"
        }
      ],
      "name": "approve",
      "outputs": [],
      "stateMutability": "nonpayable",
      "type": "function"
    },
    {
      "inputs": [
        {
          "internalType": "address",
          "name": "owner",
          "type": "address"
        }
      ],
      "name": "balanceOf",
      "outputs": [
        {
          "internalType": "uint256",
          "name": "",
          "type": "uint256"
        }
      ],
      "stateMutability": "view",
      "type": "function"
    },
    {
      "inputs": [
        {
          "internalType": "uint256",
          "name": "tokenId",
          "type": "uint256"
        }
      ],
      "name": "getApproved",
      "outputs": [
        {
          "internalType": "address",
          "name": "",
          "type": "address"
        }
      ],
      "stateMutability": "view",
      "type": "function"
    },
    {
      "inputs": [
        {
          "internalType": "address",
          "name": "_address",
          "type": "address"
        }
      ],
      "name": "getTokensByAddress",
      "outputs": [
        {
          "internalType": "uint256[]",
          "name": "",
          "type": "uint256[]"
        }
      ],
      "stateMutability": "view",
      "type": "function"
    },
    {
      "inputs": [
        {
          "internalType": "address",
          "name": "owner",
          "type": "address"
        },
        {
          "internalType": "address",
          "name": "operator",
          "type": "address"
        }
      ],
      "name": "isApprovedForAll",
      "outputs": [
        {
          "internalType": "bool",
          "name": "",
          "type": "bool"
        }
      ],
      "stateMutability": "view",
      "type": "function"
    },
    {
      "inputs": [],
      "name": "mintOrigamiNFT",
      "outputs": [],
      "stateMutability": "nonpayable",
      "type": "function"
    },
    {
      "inputs": [],
      "name": "name",
      "outputs": [
        {
          "internalType": "string",
          "name": "",
          "type": "string"
        }
      ],
      "stateMutability": "view",
      "type": "function"
    },
    {
      "inputs": [
        {
          "internalType": "uint256",
          "name": "tokenId",
          "type": "uint256"
        }
      ],
      "name": "ownerOf",
      "outputs": [
        {
          "internalType": "address",
          "name": "",
          "type": "address"
        }
      ],
      "stateMutability": "view",
      "type": "function"
    },
    {
      "inputs": [
        {
          "internalType": "uint256",
          "name": "tokenId",
          "type": "uint256"
        }
      ],
      "name": "pickRandomBGColour",
      "outputs": [
        {
          "internalType": "string",
          "name": "",
          "type": "string"
        }
      ],
      "stateMutability": "view",
      "type": "function"
    },
    {
      "inputs": [
        {
          "internalType": "uint256",
          "name": "tokenId",
          "type": "uint256"
        }
      ],
      "name": "pickRandomBladeColour",
      "outputs": [
        {
          "internalType": "string",
          "name": "",
          "type": "string"
        }
      ],
      "stateMutability": "view",
      "type": "function"
    },
    {
      "inputs": [
        {
          "internalType": "uint256",
          "name": "tokenId",
          "type": "uint256"
        }
      ],
      "name": "pickRandomHiltColourFirstHalf",
      "outputs": [
        {
          "internalType": "string",
          "name": "",
          "type": "string"
        }
      ],
      "stateMutability": "view",
      "type": "function"
    },
    {
      "inputs": [
        {
          "internalType": "uint256",
          "name": "tokenId",
          "type": "uint256"
        }
      ],
      "name": "pickRandomHiltColourSecondHalf",
      "outputs": [
        {
          "internalType": "string",
          "name": "",
          "type": "string"
        }
      ],
      "stateMutability": "view",
      "type": "function"
    },
    {
      "inputs": [
        {
          "internalType": "address",
          "name": "from",
          "type": "address"
        },
        {
          "internalType": "address",
          "name": "to",
          "type": "address"
        },
        {
          "internalType": "uint256",
          "name": "tokenId",
          "type": "uint256"
        }
      ],
      "name": "safeTransferFrom",
      "outputs": [],
      "stateMutability": "nonpayable",
      "type": "function"
    },
    {
      "inputs": [
        {
          "internalType": "address",
          "name": "from",
          "type": "address"
        },
        {
          "internalType": "address",
          "name": "to",
          "type": "address"
        },
        {
          "internalType": "uint256",
          "name": "tokenId",
          "type": "uint256"
        },
        {
          "internalType": "bytes",
          "name": "data",
          "type": "bytes"
        }
      ],
      "name": "safeTransferFrom",
      "outputs": [],
      "stateMutability": "nonpayable",
      "type": "function"
    },
    {
      "inputs": [
        {
          "internalType": "address",
          "name": "operator",
          "type": "address"
        },
        {
          "internalType": "bool",
          "name": "approved",
          "type": "bool"
        }
      ],
      "name": "setApprovalForAll",
      "outputs": [],
      "stateMutability": "nonpayable",
      "type": "function"
    },
    {
      "inputs": [
        {
          "internalType": "bytes4",
          "name": "interfaceId",
          "type": "bytes4"
        }
      ],
      "name": "supportsInterface",
      "outputs": [
        {
          "internalType": "bool",
          "name": "",
          "type": "bool"
        }
      ],
      "stateMutability": "view",
      "type": "function"
    },
    {
      "inputs": [],
      "name": "symbol",
      "outputs": [
        {
          "internalType": "string",
          "name": "",
          "type": "string"
        }
      ],
      "stateMutability": "view",
      "type": "function"
    },
    {
      "inputs": [
        {
          "internalType": "uint256",
          "name": "tokenId",
          "type": "uint256"
        }
      ],
      "name": "tokenURI",
      "outputs": [
        {
          "internalType": "string",
          "name": "",
          "type": "string"
        }
      ],
      "stateMutability": "view",
      "type": "function"
    },
    {
      "inputs": [
        {
          "internalType": "address",
          "name": "from",
          "type": "address"
        },
        {
          "internalType": "address",
          "name": "to",
          "type": "address"
        },
        {
          "internalType": "uint256",
          "name": "tokenId",
          "type": "uint256"
        }
      ],
      "name": "transferFrom",
      "outputs": [],
      "stateMutability": "nonpayable",
      "type": "function"
    }
  ],
  "bytecode": "0x608060405260405180608001604052806052815260200162005659605291396007908051906020019062000035929190620006c9565b506040518061010001604052806040518060400160405280600781526020017f234646414441440000000000000000000000000000000000000000000000000081525081526020016040518060400160405280600781526020017f234646443641350000000000000000000000000000000000000000000000000081525081526020016040518060400160405280600781526020017f234644464642360000000000000000000000000000000000000000000000000081525081526020016040518060400160405280600781526020017f234341464642460000000000000000000000000000000000000000000000000081525081526020016040518060400160405280600781526020017f233942463646460000000000000000000000000000000000000000000000000081525081526020016040518060400160405280600781526020017f234130433446460000000000000000000000000000000000000000000000000081525081526020016040518060400160405280600781526020017f234244423246460000000000000000000000000000000000000000000000000081525081526020016040518060400160405280600781526020017f2346464336464600000000000000000000000000000000000000000000000000815250815250600a9060086200022a9291906200075a565b506040518061016001604052806040518060400160405280600781526020017f234642463843430000000000000000000000000000000000000000000000000081525081526020016040518060400160405280600781526020017f234644453443460000000000000000000000000000000000000000000000000081525081526020016040518060400160405280600781526020017f234646434644320000000000000000000000000000000000000000000000000081525081526020016040518060400160405280600781526020017f234631433045380000000000000000000000000000000000000000000000000081525081526020016040518060400160405280600781526020017f234346424146300000000000000000000000000000000000000000000000000081525081526020016040518060400160405280600781526020017f234133433446330000000000000000000000000000000000000000000000000081525081526020016040518060400160405280600781526020017f233930444246340000000000000000000000000000000000000000000000000081525081526020016040518060400160405280600781526020017f233930444246340000000000000000000000000000000000000000000000000081525081526020016040518060400160405280600781526020017f233845454346350000000000000000000000000000000000000000000000000081525081526020016040518060400160405280600781526020017f233938463545310000000000000000000000000000000000000000000000000081525081526020016040518060400160405280600781526020017f2342394642433000000000000000000000000000000000000000000000000000815250815250600b90600b620004d0929190620007c1565b50348015620004de57600080fd5b506040518060400160405280600c81526020017f4f726967616d6953776f726400000000000000000000000000000000000000008152506040518060400160405280600781526020017f4f4753574f524400000000000000000000000000000000000000000000000000815250816000908051906020019062000563929190620006c9565b5080600190805190602001906200057c929190620006c9565b505050620005ca6040518060400160405280601581526020017f50617374656c206f726967616d692073776f7264730000000000000000000000815250620005e760201b620014461760201c565b620005e160086200068a60201b620014df1760201c565b620009e2565b6200068781604051602401620005fe9190620008f6565b6040516020818303038152906040527f41304fac000000000000000000000000000000000000000000000000000000007bffffffffffffffffffffffffffffffffffffffffffffffffffffffff19166020820180517bffffffffffffffffffffffffffffffffffffffffffffffffffffffff8381831617835250505050620006a060201b60201c565b50565b6001816000016000828254019250508190555050565b60008151905060006a636f6e736f6c652e6c6f679050602083016000808483855afa5050505050565b828054620006d7906200096c565b90600052602060002090601f016020900481019282620006fb576000855562000747565b82601f106200071657805160ff191683800117855562000747565b8280016001018555821562000747579182015b828111156200074657825182559160200191906001019062000729565b5b50905062000756919062000828565b5090565b828054828255906000526020600020908101928215620007ae579160200282015b82811115620007ad5782518290805190602001906200079c929190620006c9565b50916020019190600101906200077b565b5b509050620007bd919062000847565b5090565b82805482825590600052602060002090810192821562000815579160200282015b828111156200081457825182908051906020019062000803929190620006c9565b5091602001919060010190620007e2565b5b50905062000824919062000847565b5090565b5b808211156200084357600081600090555060010162000829565b5090565b5b808211156200086b57600081816200086191906200086f565b5060010162000848565b5090565b5080546200087d906200096c565b6000825580601f10620008915750620008b2565b601f016020900490600052602060002090810190620008b1919062000828565b5b50565b6000620008c2826200091a565b620008ce818562000925565b9350620008e081856020860162000936565b620008eb81620009d1565b840191505092915050565b60006020820190508181036000830152620009128184620008b5565b905092915050565b600081519050919050565b600082825260208201905092915050565b60005b838110156200095657808201518184015260208101905062000939565b8381111562000966576000848401525b50505050565b600060028204905060018216806200098557607f821691505b602082108114156200099c576200099b620009a2565b5b50919050565b7f4e487b7100000000000000000000000000000000000000000000000000000000600052602260045260246000fd5b6000601f19601f8301169050919050565b614c6780620009f26000396000f3fe608060405234801561001057600080fd5b50600436106101215760003560e01c80636352211e116100ad578063b88d4fde11610071578063b88d4fde14610352578063c6f529261461036e578063c87b56dd14610378578063e985e9c5146103a8578063ec6fbfe9146103d857610121565b80636352211e1461028857806370a08231146102b857806395d89b41146102e8578063a22cb46514610306578063b0eb2fdc1461032257610121565b8063081812fc116100f4578063081812fc146101d4578063095ea7b31461020457806323b872dd1461022057806342842e0e1461023c57806360f90bad1461025857610121565b8063019f7fe31461012657806301ffc9a71461015657806306fdde031461018657806307ca3645146101a4575b600080fd5b610140600480360381019061013b91906128f3565b610408565b60405161014d9190613174565b60405180910390f35b610170600480360381019061016b91906128a1565b6104d6565b60405161017d9190613159565b60405180910390f35b61018e6105b8565b60405161019b9190613174565b60405180910390f35b6101be60048036038101906101b991906126fa565b61064a565b6040516101cb9190613137565b60405180910390f35b6101ee60048036038101906101e991906128f3565b6106e4565b6040516101fb91906130a7565b60405180910390f35b61021e60048036038101906102199190612865565b61072a565b005b61023a6004803603810190610235919061275f565b610842565b005b6102566004803603810190610251919061275f565b6108a2565b005b610272600480360381019061026d91906128f3565b6108c2565b60405161027f9190613174565b60405180910390f35b6102a2600480360381019061029d91906128f3565b610b12565b6040516102af91906130a7565b60405180910390f35b6102d260048036038101906102cd91906126fa565b610bc4565b6040516102df9190613374565b60405180910390f35b6102f0610c7c565b6040516102fd9190613174565b60405180910390f35b610320600480360381019061031b9190612829565b610d0e565b005b61033c600480360381019061033791906128f3565b610d24565b6040516103499190613174565b60405180910390f35b61036c600480360381019061036791906127ae565b610e53565b005b610376610eb5565b005b610392600480360381019061038d91906128f3565b611053565b60405161039f9190613174565b60405180910390f35b6103c260048036038101906103bd9190612723565b611166565b6040516103cf9190613159565b60405180910390f35b6103f260048036038101906103ed91906128f3565b6111fa565b6040516103ff9190613174565b60405180910390f35b6060600061043c610418846114f5565b6040516020016104289190612fcf565b6040516020818303038152906040526116a2565b9050600a805490508161044f91906136ed565b90506040518060c00160405280608381526020016141f460839139600a82815481106104a4577f4e487b7100000000000000000000000000000000000000000000000000000000600052603260045260246000fd5b906000526020600020016040516020016104bf929190612e48565b604051602081830303815290604052915050919050565b60007f80ac58cd000000000000000000000000000000000000000000000000000000007bffffffffffffffffffffffffffffffffffffffffffffffffffffffff1916827bffffffffffffffffffffffffffffffffffffffffffffffffffffffff191614806105a157507f5b5e139f000000000000000000000000000000000000000000000000000000007bffffffffffffffffffffffffffffffffffffffffffffffffffffffff1916827bffffffffffffffffffffffffffffffffffffffffffffffffffffffff1916145b806105b157506105b0826116d5565b5b9050919050565b6060600080546105c790613641565b80601f01602080910402602001604051908101604052809291908181526020018280546105f390613641565b80156106405780601f1061061557610100808354040283529160200191610640565b820191906000526020600020905b81548152906001019060200180831161062357829003601f168201915b5050505050905090565b6060600960008373ffffffffffffffffffffffffffffffffffffffff1673ffffffffffffffffffffffffffffffffffffffff1681526020019081526020016000206000018054806020026020016040519081016040528092919081815260200182805480156106d857602002820191906000526020600020905b8154815260200190600101908083116106c4575b50505050509050919050565b60006106ef8261173f565b6004600083815260200190815260200160002060009054906101000a900473ffffffffffffffffffffffffffffffffffffffff169050919050565b600061073582610b12565b90508073ffffffffffffffffffffffffffffffffffffffff168373ffffffffffffffffffffffffffffffffffffffff1614156107a6576040517f08c379a000000000000000000000000000000000000000000000000000000000815260040161079d90613334565b60405180910390fd5b8073ffffffffffffffffffffffffffffffffffffffff166107c561178a565b73ffffffffffffffffffffffffffffffffffffffff1614806107f457506107f3816107ee61178a565b611166565b5b610833576040517f08c379a000000000000000000000000000000000000000000000000000000000815260040161082a906132d4565b60405180910390fd5b61083d8383611792565b505050565b61085361084d61178a565b8261184b565b610892576040517f08c379a000000000000000000000000000000000000000000000000000000000815260040161088990613354565b60405180910390fd5b61089d8383836118e0565b505050565b6108bd83838360405180602001604052806000815250610e53565b505050565b606060006108f66108d2846114f5565b6040516020016108e29190613063565b6040516020818303038152906040526116a2565b9050600b805490508161090991906136ed565b90506040518060c0016040528060928152602001614ab660929139600b828154811061095e577f4e487b7100000000000000000000000000000000000000000000000000000000600052603260045260246000fd5b906000526020600020016040518060e0016040528060a98152602001613e5f60a99139600b84815481106109bb577f4e487b7100000000000000000000000000000000000000000000000000000000600052603260045260246000fd5b906000526020600020016040518060c0016040528060928152602001613f9860929139600b8681548110610a18577f4e487b7100000000000000000000000000000000000000000000000000000000600052603260045260246000fd5b906000526020600020016007600b8881548110610a5e577f4e487b7100000000000000000000000000000000000000000000000000000000600052603260045260246000fd5b90600052602060002001604051806080016040528060518152602001613e0e60519139600b8a81548110610abb577f4e487b7100000000000000000000000000000000000000000000000000000000600052603260045260246000fd5b90600052602060002001604051806106e001604052806106a7815260200161431a6106a79139604051602001610afb9b9a99989796959493929190612f36565b604051602081830303815290604052915050919050565b6000806002600084815260200190815260200160002060009054906101000a900473ffffffffffffffffffffffffffffffffffffffff169050600073ffffffffffffffffffffffffffffffffffffffff168173ffffffffffffffffffffffffffffffffffffffff161415610bbb576040517f08c379a0000000000000000000000000000000000000000000000000000000008152600401610bb290613314565b60405180910390fd5b80915050919050565b60008073ffffffffffffffffffffffffffffffffffffffff168273ffffffffffffffffffffffffffffffffffffffff161415610c35576040517f08c379a0000000000000000000000000000000000000000000000000000000008152600401610c2c90613294565b60405180910390fd5b600360008373ffffffffffffffffffffffffffffffffffffffff1673ffffffffffffffffffffffffffffffffffffffff168152602001908152602001600020549050919050565b606060018054610c8b90613641565b80601f0160208091040260200160405190810160405280929190818152602001828054610cb790613641565b8015610d045780601f10610cd957610100808354040283529160200191610d04565b820191906000526020600020905b815481529060010190602001808311610ce757829003601f168201915b5050505050905090565b610d20610d1961178a565b8383611b47565b5050565b60606000610d58610d34846114f5565b604051602001610d449190613085565b6040516020818303038152906040526116a2565b9050600b8054905081610d6b91906136ed565b905060405180610100016040528060c78152602001613d4760c79139600b8281548110610dc1577f4e487b7100000000000000000000000000000000000000000000000000000000600052603260045260246000fd5b9060005260206000200160405180610120016040528060e181526020016140d360e19139600b8481548110610e1f577f4e487b7100000000000000000000000000000000000000000000000000000000600052603260045260246000fd5b90600052602060002001604051602001610e3c9493929190612e6c565b604051602081830303815290604052915050919050565b610e64610e5e61178a565b8361184b565b610ea3576040517f08c379a0000000000000000000000000000000000000000000000000000000008152600401610e9a90613354565b60405180910390fd5b610eaf84848484611cb4565b50505050565b6000610ec16008611d10565b905060658110610f06576040517f08c379a0000000000000000000000000000000000000000000000000000000008152600401610efd90613234565b60405180910390fd5b610f0f81611d1e565b6000610f1a82610408565b90506000610f2783610d24565b90506000610f34846111fa565b90506000610f41856108c2565b9050600084848484604051602001610f5c9493929190612e0a565b60405160208183030381529060405290506000610fa9610f7b886114f5565b610f8484611d8a565b604051602001610f95929190612ff1565b604051602081830303815290604052611d8a565b9050600081604051602001610fbe9190613041565b6040516020818303038152906040529050610fd93389611f48565b610fe38882611f66565b611006604051806060016040528060298152602001614b48602991398933611fda565b61101060086114df565b7f50e1384348bc4f87f33c02e9439148b092e5190ac2fce57dd8ffb7453fdec788338960405161104192919061310e565b60405180910390a15050505050505050565b606061105e8261173f565b600060066000848152602001908152602001600020805461107e90613641565b80601f01602080910402602001604051908101604052809291908181526020018280546110aa90613641565b80156110f75780601f106110cc576101008083540402835291602001916110f7565b820191906000526020600020905b8154815290600101906020018083116110da57829003601f168201915b505050505090506000611108612079565b905060008151141561111e578192505050611161565b60008251111561115357808260405160200161113b929190612de6565b60405160208183030381529060405292505050611161565b61115c84612090565b925050505b919050565b6000600560008473ffffffffffffffffffffffffffffffffffffffff1673ffffffffffffffffffffffffffffffffffffffff16815260200190815260200160002060008373ffffffffffffffffffffffffffffffffffffffff1673ffffffffffffffffffffffffffffffffffffffff16815260200190815260200160002060009054906101000a900460ff16905092915050565b6060600061122e61120a846114f5565b60405160200161121a9190613063565b6040516020818303038152906040526116a2565b9050600b805490508161124191906136ed565b90506040518060e0016040528060a9815260200161402a60a99139600b8281548110611296577f4e487b7100000000000000000000000000000000000000000000000000000000600052603260045260246000fd5b9060005260206000200160405180610100016040528060c18152602001614b7160c19139600b84815481106112f4577f4e487b7100000000000000000000000000000000000000000000000000000000600052603260045260246000fd5b906000526020600020016040518060e0016040528060a3815260200161427760a39139600b8681548110611351577f4e487b7100000000000000000000000000000000000000000000000000000000600052603260045260246000fd5b906000526020600020016040518060c0016040528060908152602001613f0860909139600b88815481106113ae577f4e487b7100000000000000000000000000000000000000000000000000000000600052603260045260246000fd5b9060005260206000200160405180610120016040528060f581526020016149c160f59139600b8a8154811061140c577f4e487b7100000000000000000000000000000000000000000000000000000000600052603260045260246000fd5b9060005260206000200160405160200161142f9a99989796959493929190612eaa565b604051602081830303815290604052915050919050565b6114dc8160405160240161145a9190613174565b6040516020818303038152906040527f41304fac000000000000000000000000000000000000000000000000000000007bffffffffffffffffffffffffffffffffffffffffffffffffffffffff19166020820180517bffffffffffffffffffffffffffffffffffffffffffffffffffffffff83818316178352505050506120f8565b50565b6001816000016000828254019250508190555050565b6060600082141561153d576040518060400160405280600181526020017f3000000000000000000000000000000000000000000000000000000000000000815250905061169d565b600082905060005b6000821461156f578080611558906136a4565b915050600a8261156891906134cc565b9150611545565b60008167ffffffffffffffff8111156115b1577f4e487b7100000000000000000000000000000000000000000000000000000000600052604160045260246000fd5b6040519080825280601f01601f1916602001820160405280156115e35781602001600182028036833780820191505090505b5090505b60008514611696576001826115fc9190613557565b9150600a8561160b91906136ed565b60306116179190613476565b60f81b818381518110611653577f4e487b7100000000000000000000000000000000000000000000000000000000600052603260045260246000fd5b60200101907effffffffffffffffffffffffffffffffffffffffffffffffffffffffffffff1916908160001a905350600a8561168f91906134cc565b94506115e7565b8093505050505b919050565b6000816040516020016116b59190612dcf565b6040516020818303038152906040528051906020012060001c9050919050565b60007f01ffc9a7000000000000000000000000000000000000000000000000000000007bffffffffffffffffffffffffffffffffffffffffffffffffffffffff1916827bffffffffffffffffffffffffffffffffffffffffffffffffffffffff1916149050919050565b61174881612121565b611787576040517f08c379a000000000000000000000000000000000000000000000000000000000815260040161177e90613314565b60405180910390fd5b50565b600033905090565b816004600083815260200190815260200160002060006101000a81548173ffffffffffffffffffffffffffffffffffffffff021916908373ffffffffffffffffffffffffffffffffffffffff160217905550808273ffffffffffffffffffffffffffffffffffffffff1661180583610b12565b73ffffffffffffffffffffffffffffffffffffffff167f8c5be1e5ebec7d5bd14f71427d1e84f3dd0314c0f7b2291e5b200ac8c7c3b92560405160405180910390a45050565b60008061185783610b12565b90508073ffffffffffffffffffffffffffffffffffffffff168473ffffffffffffffffffffffffffffffffffffffff16148061189957506118988185611166565b5b806118d757508373ffffffffffffffffffffffffffffffffffffffff166118bf846106e4565b73ffffffffffffffffffffffffffffffffffffffff16145b91505092915050565b8273ffffffffffffffffffffffffffffffffffffffff1661190082610b12565b73ffffffffffffffffffffffffffffffffffffffff1614611956576040517f08c379a000000000000000000000000000000000000000000000000000000000815260040161194d906131f4565b60405180910390fd5b600073ffffffffffffffffffffffffffffffffffffffff168273ffffffffffffffffffffffffffffffffffffffff1614156119c6576040517f08c379a00000000000000000000000000000000000000000000000000000000081526004016119bd90613254565b60405180910390fd5b6119d183838361218d565b6119dc600082611792565b6001600360008573ffffffffffffffffffffffffffffffffffffffff1673ffffffffffffffffffffffffffffffffffffffff1681526020019081526020016000206000828254611a2c9190613557565b925050819055506001600360008473ffffffffffffffffffffffffffffffffffffffff1673ffffffffffffffffffffffffffffffffffffffff1681526020019081526020016000206000828254611a839190613476565b92505081905550816002600083815260200190815260200160002060006101000a81548173ffffffffffffffffffffffffffffffffffffffff021916908373ffffffffffffffffffffffffffffffffffffffff160217905550808273ffffffffffffffffffffffffffffffffffffffff168473ffffffffffffffffffffffffffffffffffffffff167fddf252ad1be2c89b69c2b068fc378daa952ba7f163c4a11628f55a4df523b3ef60405160405180910390a4611b42838383612192565b505050565b8173ffffffffffffffffffffffffffffffffffffffff168373ffffffffffffffffffffffffffffffffffffffff161415611bb6576040517f08c379a0000000000000000000000000000000000000000000000000000000008152600401611bad90613274565b60405180910390fd5b80600560008573ffffffffffffffffffffffffffffffffffffffff1673ffffffffffffffffffffffffffffffffffffffff16815260200190815260200160002060008473ffffffffffffffffffffffffffffffffffffffff1673ffffffffffffffffffffffffffffffffffffffff16815260200190815260200160002060006101000a81548160ff0219169083151502179055508173ffffffffffffffffffffffffffffffffffffffff168373ffffffffffffffffffffffffffffffffffffffff167f17307eab39ab6107e8899845ad3d59bd9653f200f220920489ca2b5937696c3183604051611ca79190613159565b60405180910390a3505050565b611cbf8484846118e0565b611ccb84848484612197565b611d0a576040517f08c379a0000000000000000000000000000000000000000000000000000000008152600401611d01906131d4565b60405180910390fd5b50505050565b600081600001549050919050565b600960003373ffffffffffffffffffffffffffffffffffffffff1673ffffffffffffffffffffffffffffffffffffffff16815260200190815260200160002060000181908060018154018082558091505060019003906000526020600020016000909190919091505550565b60606000825190506000811415611db35760405180602001604052806000815250915050611f43565b60006003600283611dc49190613476565b611dce91906134cc565b6004611dda91906134fd565b90506000602082611deb9190613476565b67ffffffffffffffff811115611e2a577f4e487b7100000000000000000000000000000000000000000000000000000000600052604160045260246000fd5b6040519080825280601f01601f191660200182016040528015611e5c5781602001600182028036833780820191505090505b50905060006040518060600160405280604081526020016141b4604091399050600181016020830160005b86811015611f005760038101905062ffffff818a015116603f8160121c168401518060081b905060ff603f83600c1c1686015116810190508060081b905060ff603f8360061c1686015116810190508060081b905060ff603f831686015116810190508060e01b90508084526004840193505050611e87565b506003860660018114611f1a5760028114611f2a57611f35565b613d3d60f01b6002830352611f35565b603d60f81b60018303525b508484525050819450505050505b919050565b611f6282826040518060200160405280600081525061232e565b5050565b611f6f82612121565b611fae576040517f08c379a0000000000000000000000000000000000000000000000000000000008152600401611fa5906132b4565b60405180910390fd5b80600660008481526020019081526020016000209080519060200190611fd5929190612586565b505050565b612074838383604051602401611ff293929190613196565b6040516020818303038152906040527f1c7ec448000000000000000000000000000000000000000000000000000000007bffffffffffffffffffffffffffffffffffffffffffffffffffffffff19166020820180517bffffffffffffffffffffffffffffffffffffffffffffffffffffffff83818316178352505050506120f8565b505050565b606060405180602001604052806000815250905090565b606061209b8261173f565b60006120a5612079565b905060008151116120c557604051806020016040528060008152506120f0565b806120cf846114f5565b6040516020016120e0929190612de6565b6040516020818303038152906040525b915050919050565b60008151905060006a636f6e736f6c652e6c6f679050602083016000808483855afa5050505050565b60008073ffffffffffffffffffffffffffffffffffffffff166002600084815260200190815260200160002060009054906101000a900473ffffffffffffffffffffffffffffffffffffffff1673ffffffffffffffffffffffffffffffffffffffff1614159050919050565b505050565b505050565b60006121b88473ffffffffffffffffffffffffffffffffffffffff16612389565b15612321578373ffffffffffffffffffffffffffffffffffffffff1663150b7a026121e161178a565b8786866040518563ffffffff1660e01b815260040161220394939291906130c2565b602060405180830381600087803b15801561221d57600080fd5b505af192505050801561224e57506040513d601f19601f8201168201806040525081019061224b91906128ca565b60015b6122d1573d806000811461227e576040519150601f19603f3d011682016040523d82523d6000602084013e612283565b606091505b506000815114156122c9576040517f08c379a00000000000000000000000000000000000000000000000000000000081526004016122c0906131d4565b60405180910390fd5b805181602001fd5b63150b7a0260e01b7bffffffffffffffffffffffffffffffffffffffffffffffffffffffff1916817bffffffffffffffffffffffffffffffffffffffffffffffffffffffff191614915050612326565b600190505b949350505050565b61233883836123ac565b6123456000848484612197565b612384576040517f08c379a000000000000000000000000000000000000000000000000000000000815260040161237b906131d4565b60405180910390fd5b505050565b6000808273ffffffffffffffffffffffffffffffffffffffff163b119050919050565b600073ffffffffffffffffffffffffffffffffffffffff168273ffffffffffffffffffffffffffffffffffffffff16141561241c576040517f08c379a0000000000000000000000000000000000000000000000000000000008152600401612413906132f4565b60405180910390fd5b61242581612121565b15612465576040517f08c379a000000000000000000000000000000000000000000000000000000000815260040161245c90613214565b60405180910390fd5b6124716000838361218d565b6001600360008473ffffffffffffffffffffffffffffffffffffffff1673ffffffffffffffffffffffffffffffffffffffff16815260200190815260200160002060008282546124c19190613476565b92505081905550816002600083815260200190815260200160002060006101000a81548173ffffffffffffffffffffffffffffffffffffffff021916908373ffffffffffffffffffffffffffffffffffffffff160217905550808273ffffffffffffffffffffffffffffffffffffffff16600073ffffffffffffffffffffffffffffffffffffffff167fddf252ad1be2c89b69c2b068fc378daa952ba7f163c4a11628f55a4df523b3ef60405160405180910390a461258260008383612192565b5050565b82805461259290613641565b90600052602060002090601f0160209004810192826125b457600085556125fb565b82601f106125cd57805160ff19168380011785556125fb565b828001600101855582156125fb579182015b828111156125fa5782518255916020019190600101906125df565b5b509050612608919061260c565b5090565b5b8082111561262557600081600090555060010161260d565b5090565b600061263c612637846133b4565b61338f565b90508281526020810184848401111561265457600080fd5b61265f8482856135ff565b509392505050565b60008135905061267681613cea565b92915050565b60008135905061268b81613d01565b92915050565b6000813590506126a081613d18565b92915050565b6000815190506126b581613d18565b92915050565b600082601f8301126126cc57600080fd5b81356126dc848260208601612629565b91505092915050565b6000813590506126f481613d2f565b92915050565b60006020828403121561270c57600080fd5b600061271a84828501612667565b91505092915050565b6000806040838503121561273657600080fd5b600061274485828601612667565b925050602061275585828601612667565b9150509250929050565b60008060006060848603121561277457600080fd5b600061278286828701612667565b935050602061279386828701612667565b92505060406127a4868287016126e5565b9150509250925092565b600080600080608085870312156127c457600080fd5b60006127d287828801612667565b94505060206127e387828801612667565b93505060406127f4878288016126e5565b925050606085013567ffffffffffffffff81111561281157600080fd5b61281d878288016126bb565b91505092959194509250565b6000806040838503121561283c57600080fd5b600061284a85828601612667565b925050602061285b8582860161267c565b9150509250929050565b6000806040838503121561287857600080fd5b600061288685828601612667565b9250506020612897858286016126e5565b9150509250929050565b6000602082840312156128b357600080fd5b60006128c184828501612691565b91505092915050565b6000602082840312156128dc57600080fd5b60006128ea848285016126a6565b91505092915050565b60006020828403121561290557600080fd5b6000612913848285016126e5565b91505092915050565b60006129288383612db1565b60208301905092915050565b61293d8161358b565b82525050565b600061294e8261340a565b6129588185613438565b9350612963836133e5565b8060005b8381101561299457815161297b888261291c565b97506129868361342b565b925050600181019050612967565b5085935050505092915050565b6129aa8161359d565b82525050565b60006129bb82613415565b6129c58185613449565b93506129d581856020860161360e565b6129de816137da565b840191505092915050565b60006129f482613420565b6129fe818561345a565b9350612a0e81856020860161360e565b612a17816137da565b840191505092915050565b6000612a2d82613420565b612a37818561346b565b9350612a4781856020860161360e565b80840191505092915050565b60008154612a6081613641565b612a6a818661346b565b94506001821660008114612a855760018114612a9657612ac9565b60ff19831686528186019350612ac9565b612a9f856133f5565b60005b83811015612ac157815481890152600182019150602081019050612aa2565b838801955050505b50505092915050565b6000612adf600f8361346b565b9150612aea826137eb565b600f82019050919050565b6000612b0260328361345a565b9150612b0d82613814565b604082019050919050565b6000612b2560258361345a565b9150612b3082613863565b604082019050919050565b6000612b48601c8361345a565b9150612b53826138b2565b602082019050919050565b6000612b6b60108361345a565b9150612b76826138db565b602082019050919050565b6000612b8e60098361346b565b9150612b9982613904565b600982019050919050565b6000612bb160248361345a565b9150612bbc8261392d565b604082019050919050565b6000612bd460198361345a565b9150612bdf8261397c565b602082019050919050565b6000612bf7606f8361346b565b9150612c02826139a5565b606f82019050919050565b6000612c1a60298361345a565b9150612c2582613a40565b604082019050919050565b6000612c3d602e8361345a565b9150612c4882613a8f565b604082019050919050565b6000612c6060028361346b565b9150612c6b82613ade565b600282019050919050565b6000612c83603e8361345a565b9150612c8e82613b07565b604082019050919050565b6000612ca660208361345a565b9150612cb182613b56565b602082019050919050565b6000612cc9600a8361346b565b9150612cd482613b7f565b600a82019050919050565b6000612cec60188361345a565b9150612cf782613ba8565b602082019050919050565b6000612d0f60218361345a565b9150612d1a82613bd1565b604082019050919050565b6000612d32601d8361346b565b9150612d3d82613c20565b601d82019050919050565b6000612d55600b8361346b565b9150612d6082613c49565b600b82019050919050565b6000612d78600c8361346b565b9150612d8382613c72565b600c82019050919050565b6000612d9b602e8361345a565b9150612da682613c9b565b604082019050919050565b612dba816135f5565b82525050565b612dc9816135f5565b82525050565b6000612ddb8284612a22565b915081905092915050565b6000612df28285612a22565b9150612dfe8284612a22565b91508190509392505050565b6000612e168287612a22565b9150612e228286612a22565b9150612e2e8285612a22565b9150612e3a8284612a22565b915081905095945050505050565b6000612e548285612a22565b9150612e608284612a53565b91508190509392505050565b6000612e788287612a22565b9150612e848286612a53565b9150612e908285612a22565b9150612e9c8284612a53565b915081905095945050505050565b6000612eb6828d612a22565b9150612ec2828c612a53565b9150612ece828b612a22565b9150612eda828a612a53565b9150612ee68289612a22565b9150612ef28288612a53565b9150612efe8287612a22565b9150612f0a8286612a53565b9150612f168285612a22565b9150612f228284612a53565b91508190509b9a5050505050505050505050565b6000612f42828e612a22565b9150612f4e828d612a53565b9150612f5a828c612a22565b9150612f66828b612a53565b9150612f72828a612a22565b9150612f7e8289612a53565b9150612f8a8288612a53565b9150612f968287612a53565b9150612fa28286612a22565b9150612fae8285612a53565b9150612fba8284612a22565b91508190509c9b505050505050505050505050565b6000612fda82612b81565b9150612fe68284612a22565b915081905092915050565b6000612ffc82612cbc565b915061300782612ad2565b91506130138285612a22565b915061301e82612bea565b915061302a8284612a22565b915061303582612c53565b91508190509392505050565b600061304c82612d25565b91506130588284612a22565b915081905092915050565b600061306e82612d48565b915061307a8284612a22565b915081905092915050565b600061309082612d6b565b915061309c8284612a22565b915081905092915050565b60006020820190506130bc6000830184612934565b92915050565b60006080820190506130d76000830187612934565b6130e46020830186612934565b6130f16040830185612dc0565b818103606083015261310381846129b0565b905095945050505050565b60006040820190506131236000830185612934565b6131306020830184612dc0565b9392505050565b600060208201905081810360008301526131518184612943565b905092915050565b600060208201905061316e60008301846129a1565b92915050565b6000602082019050818103600083015261318e81846129e9565b905092915050565b600060608201905081810360008301526131b081866129e9565b90506131bf6020830185612dc0565b6131cc6040830184612934565b949350505050565b600060208201905081810360008301526131ed81612af5565b9050919050565b6000602082019050818103600083015261320d81612b18565b9050919050565b6000602082019050818103600083015261322d81612b3b565b9050919050565b6000602082019050818103600083015261324d81612b5e565b9050919050565b6000602082019050818103600083015261326d81612ba4565b9050919050565b6000602082019050818103600083015261328d81612bc7565b9050919050565b600060208201905081810360008301526132ad81612c0d565b9050919050565b600060208201905081810360008301526132cd81612c30565b9050919050565b600060208201905081810360008301526132ed81612c76565b9050919050565b6000602082019050818103600083015261330d81612c99565b9050919050565b6000602082019050818103600083015261332d81612cdf565b9050919050565b6000602082019050818103600083015261334d81612d02565b9050919050565b6000602082019050818103600083015261336d81612d8e565b9050919050565b60006020820190506133896000830184612dc0565b92915050565b60006133996133aa565b90506133a58282613673565b919050565b6000604051905090565b600067ffffffffffffffff8211156133cf576133ce6137ab565b5b6133d8826137da565b9050602081019050919050565b6000819050602082019050919050565b60008190508160005260206000209050919050565b600081519050919050565b600081519050919050565b600081519050919050565b6000602082019050919050565b600082825260208201905092915050565b600082825260208201905092915050565b600082825260208201905092915050565b600081905092915050565b6000613481826135f5565b915061348c836135f5565b9250827fffffffffffffffffffffffffffffffffffffffffffffffffffffffffffffffff038211156134c1576134c061371e565b5b828201905092915050565b60006134d7826135f5565b91506134e2836135f5565b9250826134f2576134f161374d565b5b828204905092915050565b6000613508826135f5565b9150613513836135f5565b9250817fffffffffffffffffffffffffffffffffffffffffffffffffffffffffffffffff048311821515161561354c5761354b61371e565b5b828202905092915050565b6000613562826135f5565b915061356d836135f5565b9250828210156135805761357f61371e565b5b828203905092915050565b6000613596826135d5565b9050919050565b60008115159050919050565b60007fffffffff0000000000000000000000000000000000000000000000000000000082169050919050565b600073ffffffffffffffffffffffffffffffffffffffff82169050919050565b6000819050919050565b82818337600083830152505050565b60005b8381101561362c578082015181840152602081019050613611565b8381111561363b576000848401525b50505050565b6000600282049050600182168061365957607f821691505b6020821081141561366d5761366c61377c565b5b50919050565b61367c826137da565b810181811067ffffffffffffffff8211171561369b5761369a6137ab565b5b80604052505050565b60006136af826135f5565b91507fffffffffffffffffffffffffffffffffffffffffffffffffffffffffffffffff8214156136e2576136e161371e565b5b600182019050919050565b60006136f8826135f5565b9150613703836135f5565b9250826137135761371261374d565b5b828206905092915050565b7f4e487b7100000000000000000000000000000000000000000000000000000000600052601160045260246000fd5b7f4e487b7100000000000000000000000000000000000000000000000000000000600052601260045260246000fd5b7f4e487b7100000000000000000000000000000000000000000000000000000000600052602260045260246000fd5b7f4e487b7100000000000000000000000000000000000000000000000000000000600052604160045260246000fd5b6000601f19601f8301169050919050565b7f4f726967616d692053776f726420230000000000000000000000000000000000600082015250565b7f4552433732313a207472616e7366657220746f206e6f6e20455243373231526560008201527f63656976657220696d706c656d656e7465720000000000000000000000000000602082015250565b7f4552433732313a207472616e736665722066726f6d20696e636f72726563742060008201527f6f776e6572000000000000000000000000000000000000000000000000000000602082015250565b7f4552433732313a20746f6b656e20616c7265616479206d696e74656400000000600082015250565b7f416c6c204e465473206d696e7465642100000000000000000000000000000000600082015250565b7f42475f434f4c4f55520000000000000000000000000000000000000000000000600082015250565b7f4552433732313a207472616e7366657220746f20746865207a65726f2061646460008201527f7265737300000000000000000000000000000000000000000000000000000000602082015250565b7f4552433732313a20617070726f766520746f2063616c6c657200000000000000600082015250565b7f222c20226465736372697074696f6e223a2022412062656175746966756c206360008201527f6f6c6c656374696f6e206f662072617a6f72207368617270206f726967616d6960208201527f2073776f7264732e222c2022696d616765223a2022646174613a696d6167652f60408201527f7376672b786d6c3b6261736536342c0000000000000000000000000000000000606082015250565b7f4552433732313a2061646472657373207a65726f206973206e6f74206120766160008201527f6c6964206f776e65720000000000000000000000000000000000000000000000602082015250565b7f45524337323155524953746f726167653a2055524920736574206f66206e6f6e60008201527f6578697374656e7420746f6b656e000000000000000000000000000000000000602082015250565b7f227d000000000000000000000000000000000000000000000000000000000000600082015250565b7f4552433732313a20617070726f76652063616c6c6572206973206e6f7420746f60008201527f6b656e206f776e6572206e6f7220617070726f76656420666f7220616c6c0000602082015250565b7f4552433732313a206d696e7420746f20746865207a65726f2061646472657373600082015250565b7f7b226e616d65223a202200000000000000000000000000000000000000000000600082015250565b7f4552433732313a20696e76616c696420746f6b656e2049440000000000000000600082015250565b7f4552433732313a20617070726f76616c20746f2063757272656e74206f776e6560008201527f7200000000000000000000000000000000000000000000000000000000000000602082015250565b7f646174613a6170706c69636174696f6e2f6a736f6e3b6261736536342c000000600082015250565b7f48494c545f434f4c4f5552000000000000000000000000000000000000000000600082015250565b7f424c4144455f434f4c4f55520000000000000000000000000000000000000000600082015250565b7f4552433732313a2063616c6c6572206973206e6f7420746f6b656e206f776e6560008201527f72206e6f7220617070726f766564000000000000000000000000000000000000602082015250565b613cf38161358b565b8114613cfe57600080fd5b50565b613d0a8161359d565b8114613d1557600080fd5b50565b613d21816135a9565b8114613d2c57600080fd5b50565b613d38816135f5565b8114613d4357600080fd5b5056fe272f3e3c7061746820643d274d3237322e3632352032372e3337356c2d39312e3331342037332e313733202d35352e3936382037342e30363420372e39373120382e3835392032302e3036342031302e3638394c3237332037342e35373763322e343339202d322e34333920332e373032202d352e38313420332e353136202d392e3233346c2d322e303136202d33342e313235632d302e313431202d312e343532202d302e383433202d322e383134202d312e383735202d332e3834335a272066696c6c3d27272f3e3c7061746820643d274d36382e333931203130392e3232316c33352e3637332031322e303936202d31312e3831342031312e383134202d32332e393037202d32332e3930375a272066696c6c3d27272f3e3c7061746820643d274d3136362e393233203230372e3730326c332e3034382031352e3138392032302e38353920382e37323163312e303737202d302e39383420312e373334202d322e33343620312e383237202d332e37356c312e35202d34322e31343163302e303933202d312e393233202d322e323938202d322e393532202d332e363537202d312e3539366c2d32332e3537372032332e3537375a272066696c6c3d27272f3e3c7061746820643d274d39382e363235203233322e3832376c2d312e323636202d31322e323832202d31342e343339202d332e343233202d32372e3839312032372e383931202d322e3230322033312e33353963312e333539203020322e363733202d302e35313620332e363537202d312e3430376c34322e313431202d34322e3134315a272066696c6c3d27272f3e3c7061746820643d274d3135332e333735203139342e3230326c2d32332e383134202d32332e383134202d312e3539362036342e3435322035392e303136202d312e34353263312e343532202d302e30393320322e373636202d302e373520332e3735202d312e3738326c2d32332e393037202d32332e393037202d31332e35202d31332e355a272066696c6c3d27272f3e3c7061746820643d274d36382e333931203130392e3232316c352e3732312031372e3533322031382e31383920362e3337352032332e353737202d32332e35373763312e333539202d312e33353920302e333735202d332e373032202d312e353936202d332e3635376c2d34322e31343120312e35632d312e34353220302e313431202d322e37363620302e373938202d332e373520312e38323768305a272066696c6c3d27272f3e3c7061746820643d274d3233332e3339312032332e343834632d3320302e313431202d352e38313420312e343037202d372e39373120332e3531364c3130352e373938203134362e3632356c392e3337352031372e3835392031302e3137332031302e3137334c3237322e3632352032372e333735632d302e393834202d312e303737202d322e333436202d312e373334202d332e383433202d312e3837356c2d33342e313235202d322e303136632d302e343233202d302e303438202d302e383433202d302e303438202d312e323636203068305a272066696c6c3d274142434445464748494a4b4c4d4e4f505152535455565758595a6162636465666768696a6b6c6d6e6f707172737475767778797a303132333435363738392b2f3c7376672077696474683d27333030707827206865696768743d273330307078272076696577426f783d2730203020333030203330302720786d6c6e733d27687474703a2f2f7777772e77332e6f72672f323030302f737667273e3e3c726563742077696474683d273130302527206865696768743d2731303025272066696c6c3d27272f3e3c7061746820643d274d32332e363235203234372e3232316c33312e333539202d322e3230322031392e393233202d352e37323120372e393731202d32322e31323520332e353136202d31332e313733202d31392e323138202d322e353332202d34322e3134312034322e313431632d302e38393120302e393834202d312e34303720322e323938202d312e34303720332e36353768305a272066696c6c3d27272f3e3c7061746820643d274d3236392e3036342032302e3831346c2d33342e313235202d322e303136632d342e373832202d302e323739202d392e34373120312e35202d31322e38343620342e3837354c3130352e373938203133392e3936386c2d362e383931202d362e3839312032302e323938202d32302e32393863322e363235202d322e36373320322e363235202d362e3938342030202d392e363039202d312e333539202d312e333539202d332e313431202d322e313039202d352e303634202d322e3031366c2d34322e31343120312e35632d352e35323920302e313839202d392e39333920342e363839202d31302e3037372031302e3137336c2d312e3430372035372e313431202d382e35333220382e353332632d332e39333920332e393339202d332e3933392031302e33353920302031342e3239386c382e35373720382e353737202d33382e3835392033382e383539632d332e39333920332e393339202d332e3933392031302e33353920302031342e3239386c32332e3736362032332e37363663312e39363820312e39363820342e35343820322e39353220372e31323520322e39353273352e313537202d302e39383420372e313235202d322e3935326c33382e383539202d33382e38353920382e35373720382e35373763312e39323320312e39323320342e34353220322e39353220372e31323520322e393532683063322e373138203020352e3235202d312e30323920372e313235202d322e3935326c382e353332202d382e3533322035372e313431202d312e34303763352e353239202d302e31343120392e393834202d342e3534382031302e313733202d31302e3037376c312e35202d34322e31343163302e313431202d332e3735202d322e383134202d362e393339202d362e363039202d372e303737202d312e3837352030202d332e37303220302e363537202d352e30363420322e3031366c2d32302e3239382032302e323938202d362e383931202d362e383931203131362e323938202d3131362e32393863332e333735202d332e33373520352e313537202d382e30363420342e383735202d31322e3834366c2d322e303136202d33342e313235632d302e333237202d352e343339202d342e363839202d392e373938202d31302e313235202d31302e3132355a6d2d34302e33313420392e34373163312e35202d312e3520332e353136202d322e32393820352e363235202d322e3135376c32392e31303920312e373334202d3133332e393233203133332e393233202d31372e313537202d31372e3135374c3232382e37352033302e3238325a6d2d3131302e323032203133352e3730326c2d34382e35363420312e31373320312e323231202d34382e3536342034372e3339312034372e3339315a6d2d32362e3235202d33392e3531366c2d31342e363235202d31342e3632352033302e333237202d312e303737202d31352e3730322031352e3730325a6d2d32352e3132352038312e3536346c392e30393320392e303933202d32332e3334362032332e333436202d31392e35343820312e3335392033332e373938202d33332e3739385a6d2d33352e3339312034332e3331346c31382e313839202d312e323636202d312e3236362031382e313839202d31362e383735202d31362e3837355a6d32362e3339312031352e3237396c312e333539202d31392e3534382032332e333436202d32332e33343620392e30393320392e303933202d33332e3739382033332e3739385a6d35362e363733202d32352e323231732d302e33373520302e323334202d302e35313620302e323334202d302e3332372030202d302e353136202d302e3233346c2d35352e313733202d35352e313733632d302e323739202d302e323739202d302e323739202d302e37352030202d312e3032396c382e353332202d382e3533322035372e363537202d312e343037202d312e3430372035372e363537202d382e35333220382e3533325a6d37342e333931202d34392e3335396c2d312e3037372033302e333237202d31342e363235202d31342e3632352031352e373032202d31352e3730325a6d2d372e3832372033362e3834366c2d34382e35363420312e31373320312e313733202d34382e3536342034372e3339312034372e3339315a4d3236392e3732312037312e32356c2d3131362e323938203131362e323938202d31372e313537202d31372e3135374c3237302e3134312033362e3531366c312e3733342032392e31303963302e31343120322e313039202d302e36353720342e313733202d322e31353720352e3632355a272f3e3c2f7376673e272f3e3c7061746820643d274d3132382e303136203233342e3834366c31312e383134202d32372e333237202d31302e323231202d33372e313235202d33322e393034202d362e323832202d33312e35343820372e383735202d392e38393120392e383931632d322e31303920322e313039202d322e31303920352e353239203020372e3634316c31312e3930372031312e3835392031352e3730322031352e3730322031352e3730322031352e3730322031312e3835392031312e39303763322e31303920322e31303920352e35323920322e31303920372e36343120306c392e383931202d392e3839315a272066696c6c3d27272f3e3c7061746820643d274d36352e313537203137312e3938346c36342e343532202d312e353936202d32332e383134202d32332e383134202d31332e35202d31332e35202d32332e393037202d32332e393037632d312e30323920302e393834202d312e36383920322e333436202d312e37383220332e37356c2d312e3435322035392e3031365a272066696c6c3d274e6577206f726967616d692073776f72642077697468204944202573206d696e74656420746f202573272f3e3c7061746820643d274d35322e373832203237362e3337356c392e373032202d32312e303936202d372e343532202d31302e323636202d392e303933202d382e363235202d32322e3331342031302e383237632d302e30393320312e34353220302e34323320322e39303720312e34303720332e3938346c31312e3835392031312e3835392031312e3835392031312e39303763312e30373720302e39383420322e35333220312e3520332e39383420312e3430375a272066696c6c3d27a2646970667358221220aa5c9b20f3be2b054fe3423a93acb4208797d28d8859759ae7b74373bac68edc64736f6c63430008010033272f3e3c7061746820643d274d3139302e373832203233312e3630396c2d31322e303936202d33352e363733202d31312e3831342031312e3831342032332e3930372032332e3930375a272066696c6c3d27",
  "linkReferences": {},
  "deployedLinkReferences": {}
}